:020000020000FC
:1000000012C0189518951895189518951895189563
:100010001895189518953AC018951895189518952B
:100020001895189518950FED0DBF88240FEF902E99
:1000300000241124222433244424552466247724C4
:1000400099279062AA27BFEF8FEF87BA88BA0EEF81
:100050000ABB01E00BBBC89B05C081BA82BAA16094
:10006000CAD105C008E701BB02BBA260C4D1E0D180
:1000700006E703B900E10AB90FEFC89B0FE000BD26
:1000800000E20BBFAD7FAE7FB6D162C0C89B42C05D
:1000900081BAB09B01BAB19B11BAB29B21BAB39B92
:1000A00031BAB49B41BAB59B51BAB69B61BAB79B02
:1000B00071BAB79B03C0BA9409F01895CFB68E15E4
:1000C00021F10024112422243324442455246624BD
:1000D00077248F3FD1F0182F137024E0220F1A9548
:1000E000EAF7182F1C7116951695DD27CC27C10F3E
:1000F0002883182F107E49F012951695DD27CC27FE
:100100001A95C10F288120642883E82ECFBE28E0ED
:10011000B22E1895F894CFB626B32F70273039F445
:100120001FEF10E791FD0EC01B2F107F0BC0182F83
:100130001F3F61F0182F1F702F3011F0121731F48C
:10014000182F107F169512BBCFBE18951FEFFACF50
:1001500078945F9BFDCFF8945CB15A3FC9F3503F50
:1001600091F0503EB1F05231B1F05935A1F0543117
:10017000C1F05431B1F05131D1F0583509F1573750
:1001800009F030C050CF98608FEFBFEFAE7FD998A5
:10019000DFCF9064DDCF93FD02C09160D9CF967F11
:1001A000D7CF93FD02C09260D3CF957FD1CF96FF7A
:1001B00019C093FD03C094609F7BCACF937BC8CFC7
:1001C00093FF03C09062977FC3CF95FFC1CF94FF89
:1001D00004C09F7CAB7F0FD1BBCF9F7D9061A4609B
:1001E0000AD1B6CF93FF06C0977BC899B1CF8FEFE6
:1001F00082BBAECF92FD2BC096FD29C0E6E0F5E0B4
:1002000065E4C89903C0E2E8F2E069E47591571724
:1002100031F03296C89B31966A95C1F729C090FD9E
:1002200003C094FD03C005C094FD03C0C89B0AC071
:1002300031968491C89903C0B82F31968491A160FA
:10024000D99A86CFB491B29532968491F8CF9F7B9C
:10025000E2EDF5E06FE0C89903C0E6EAF3E065E19E
:100260007591571739F03196C89B32966A95C1F748
:100270008FEF6ECF8491C899E2CFB82F31968491D9
:10028000DECF16F8E0E026F8E1E12EF8E2E23DF8F4
:10029000E3E346F8E4E4618FE6E683FFE9FF03FF6A
:1002A000EAFF15F8D0D024F8D1D12CF8D2D23CF8FE
:1002B000D3D344F8D4D45AFFD6D60AFFD9FF1CF8BA
:1002C000C0C023F8C1C134F8C2C23BF8C3C34BF865
:1002D000C4C401FFC9FF1AF8B0B021F8B1B132F8B7
:1002E000B2B23AF8B3B349F8B4B455FFFFFF05FF13
:1002F000B8FF09FFB9FF1EF8A0A025F8A1A136F8A4
:10030000A2A23EF8A3A345F8A4A45BF8A5A529FFE3
:10031000A6A676FFA8A806FFA8FF1DF890902DF8C6
:10032000919135F8929243F893934DF894945DF837
:10033000959504FF98FF1BF880802BF8818133F896
:10034000828242F883834EF884E50EFF85FF0CFF1E
:1003500088FF22F870702AF8717131F8727241F8D2
:1003600073734AF874740BFF78FF66FFB6B67BFFB1
:10037000747479FFA5A570FFA4FF69FFE0FF72FF09
:10038000A0867AFFE1FF6BFFA1B673FFE2FF74FF67
:10039000A2766CFFE3FF75FFA3C67DFFE4C671FF85
:1003A00073FF7C8FA5FF75FFC6C66BFFB6B672FFE5
:1003B000868674FF76765BF8E5FF3DFF98FF45FF84
:1003C00088FF3EFFC5FF46FFD5FF4E8FE5FF618FDB
:1003D00085FF4A8FE3FF5AFFD6D670FFFFFF6CFF01
:1003E000FFFF7DFFFFFF7AFFFFFF69FFFFFF71FF48
:1003F000D8FF15FF75FFF8944DEE21D00ED03A2F9F
:100400003770432F1CD008953F9336EC0000000056
:100410003A95E9F73F91000008953F9332E3F4DF06
:10042000000000003A95D9F73F91089534E101C0EA
:1004300038EC3F93F2DF3A95E9F73F91089530E0C9
:100440003AB941D0929890988A98DEDF889A82993A
:10045000FECF40FF909840FD909A30D041FF909899
:1004600041FD909A2BD042FF909842FD909A26D061
:1004700043FF909843FD909A21D044FF909844FD0B
:10048000909A1CD045FF909845FD909A17D046FF52
:10049000909846FD909A12D047FF909847FD909A09
:1004A0000DD0D0FE9098D0FC909A08D08A98889869
:1004B000ABDF9298909830E13AB90895829BFECFD5
:1004C0008299FECF0895D42E3F933D2DD294D3260A
:1004D0003D2DD694D694D326D394D69431E0D0949F
:1004E000D3223F910895D99AA1DFD9989FDFD99A55
:1004F0009DDFD9989BDFD99A99DFD99897DFD99A50
:1005000095DFD99808950E38381625451E294926B5
:100510002D4D2531512E35553639593D3D5E3E2202
:10052000424626464521364E3E3E1506661D1E7E37
:100530002414742D0A6A2C12723528483C1676430E
:100540000565441D7D4D02625B4E4A1C04641B0E12
:100550006E2310702B1878341C7C3301613B0969C1
:10056000420D6D4B11715D4D5D61323A1A2444228A
:100570002040210C6C2A1A7A3208683119793A1510
:100580007541522E495A2A4A563C2917175A1F1F9D
:10059000768D8D6613130D1B1B7C4A4A7B5656794C
:1005A0004E4E6C3D3D7522227D26266B31317335D2
:1005B000357439396925257229297A2D257021212B
:1005C000715252555D5D050303060707040B0B0CC2
:1005D0000F0F3D4C3E2C463445544E3015005B0009
:1005E0006150758E728A6B13741B71525A1F4A5E6A
:00000001FF
