:020000020000FC
:1000000012C0189518951895189518951895189563
:1000100018951895189537C018951895189518952E
:100020001895189518950FED0DBF88240FEF902E99
:1000300000241124222433244424552466247724C4
:100040009927AA278FEF87BA88BA0EEF0ABB01E07B
:100050000BBBC89B04C081BA82BAA16005C008E787
:1000600001BB02BBA260F2D10DD206E703B900E1E9
:100070000AB90FEFC89B0FE000BD00E20BBFAD7FD8
:10008000AE7FE4D168C0C89B42C081BAB09B01BAC0
:10009000B19B11BAB29B21BAB39B31BAB49B41BA9E
:1000A000B59B51BAB69B61BAB79B71BAB79B03C0F7
:1000B000BA9409F01895CFB68E1521F100241124B9
:1000C0002224332444245524662477248F3FD1F0FE
:1000D000182F137024E0220F1A95EAF7182F1C71BD
:1000E00016951695DD27CC27C10F2883182F107E73
:1000F00049F012951695DD27CC271A95C10F288156
:1001000020642883E82ECFBE28E0B22E1895CFB603
:1001100026B32F70273071F4112790FF03C091FF91
:1001200001C013C010E890FD10C010E791FD0DC094
:100130001FEF0BC0182F1F3F61F0182F1F702F30BB
:1001400011F0121731F4182F107F169512BBCFBE85
:1001500018951FEFFACF78945F9BFDCF5CB15A3FA3
:10016000D1F3503F79F0503E81F0523181F0593552
:1001700071F0543191F0543181F05131A1F0583582
:10018000D9F02AC098608FEFE6CF9064E4CF93FD5A
:1001900002C09160E0CF967FDECF93FD02C09260F7
:1001A000DACF957FD8CF96FF17C093FD03C0946038
:1001B0009F7BD1CF937BCFCF93FF03C09062977F7C
:1001C000CACF95FFC8CF94FF03C09F7CD998C3CFF7
:1001D0009F7D9061D99ABFCF93FF06C0977BC89946
:1001E000BACF8FEF82BBB7CF92FD23C096FD21C05F
:1001F000E6E6F2E064E4C89903C0E0E5F3E06EE40B
:100200007591571721F032966A95D1F723C090FD6A
:1002100005C091FD03C094FD03C004C094FD02C05D
:10022000C89931968491C89996CF31966491962B4E
:1002300092CF9F7BE2E3F3E06EE0C89903C0EAE36C
:10024000F4E066E07591571739F03196C89B319606
:100250006A95C1F78FEF7FCF8491C8997CCF319693
:100260006491962B78CF0E38381625451E294926DD
:100270002D4D2531512E35553639593D3D5E3E22A5
:10028000424626464521364E3E3E1506661D1E7EDA
:100290002414742D0A6A2C12723528483C167643B1
:1002A0000565441D7D4D02625B4E4A1C04641B0EB5
:1002B0006E2310702B1878341C7C3301613B096964
:1002C000420D6D4B11715D4D5D61323A1A2444222D
:1002D0002040210C6C2A1A7A3208683119793A15B3
:1002E0007541522E495A2A4A563C2917175A1F1F40
:1002F000768D8D6613130D1B1B7C4A4A7B565679EF
:100300004E4E6C3D3D7522227D26266B3131733574
:10031000357439396925257229297A2D25702121CD
:10032000715252555D5D050303060707040B0B0C64
:100330000F0F3D4C3E2C463445544E3015005B00AB
:100340006150758E728A6B13741B71525A1F4A5E0C
:100350000E850016E0001EA00026E10025A1002E5B
:10036000E20036A2003DE3003EA30046E40045A4BF
:10037000004E740015D0001D900024D1002D910076
:100380002CD2003592003CD30043930044D4004D5E
:1003900094005BA5001CC0001B800023C1002B81C2
:1003A0000034C2003382003BC3004283004BC400D0
:1003B0005D950061B5001AB00022700021B1002ADD
:1003C000710032B2003172003AB30041730049B497
:1003D000004A740029A6005AD60076960066B60038
:1003E0000DFF007CA5014CFF0052FF007B740079DB
:1003F000A5007DE4006BA1006CE30075A30073E22F
:100400000074A2007AE10070A40069E00072A0000C
:1004100071730055FF0005B80006A8000498000C91
:10042000880003EA000B780083E9000AD90001C9BB
:100430000009B90078A90007990075C60072860006
:100440006BB6007476001575005AD6004DEE21D0BB
:100450000ED03A2F3770432F1CD008953F9336ECBF
:10046000000000003A95E9F73F91000008953F939E
:1004700032E3F4DF000000003A95D9F73F91089588
:1004800034E101C038EC3F93F2DF3A95E9F73F9150
:10049000089530E03AB93FD08A98E0DF889A82998F
:1004A000FECF40FF909840FD909A30D041FF909849
:1004B00041FD909A2BD042FF909842FD909A26D011
:1004C00043FF909843FD909A21D044FF909844FDBB
:1004D000909A1CD045FF909845FD909A17D046FF02
:1004E000909846FD909A12D047FF909847FD909AB9
:1004F0000DD0D0FE9098D0FC909A08D08A98889819
:10050000ADDF9298909830E13AB90895829BFECF82
:100510008299FECF0895D42E3F933D2DD294D326B9
:100520003D2DD694D694D326D394D69431E0D0944E
:10053000D3223F910895D99AA3DFD998A1DFD99A00
:100540009FDFD9989DDFD99A9BDFD99899DFD99AF7
:0605500097DFD998089521
:00000001FF
