:020000020000FC
:1000000012C0189518951895189518951895189563
:1000100018951895189525C0189518951895189540
:1000200018951895189588240FEF902E0024112408
:100030002224332444245524662477249927AFEFBF
:100040000FED0DBF87BA88BA81BA82BA9ABA8BBA55
:1000500006E703B900E10AB990BC00E20BBF78944F
:1000600043C081BAB09B01BAB19B11BAB29B21BA0D
:10007000B39B31BAB49B41BAB59B51BAB69B61BA36
:10008000B79B71BAB79B03C0BA9509F01895D89A77
:100090008FB7AE1521F100241124222433244424E7
:1000A000552466247724AF3FD1F01A2F137024E033
:1000B000220F1A95EAF71A2F1C7116951695DD274F
:1000C000CC27C10F28831A2F107E49F01295169560
:1000D000DD27CC271A95C10F288120642883EA2EBA
:1000E0008FBFD898B8E01895D9985F9BFDCFD99A63
:1000F0005CB1503F59F0503E61F0523161F05935DA
:1001000081F05131A1F05835D9F028C09860AFEF97
:10011000EBCF9064E9CF93FD02C09160E5CF967F6D
:10012000E3CF93FD02C09260DFCF957FDDCF96FFD6
:1001300015C093FD03C094609F7BD6CF937BD4CF33
:1001400093FF03C09062977FCFCF95FF189594FFE0
:1001500002C09F7CC9CF9F7D9061C6CF93FF03C033
:10016000977BAFEFC1CF92FD18C096FD16C0E8EBAC
:10017000F1E064E47591571721F032966A95D1F752
:1001800019C090FD05C091FD03C094FD03C003C0DC
:1001900094FD01C03196A491A7CF9F7BE4E8F2E0E3
:1001A0006FE07591571721F031966A95D1F702C02B
:1001B000A4919ACFAFEF98CF0E38381625451E2957
:1001C00049262D2D2531512E35553639593D3D5E67
:1001D0003E22424626464521364E3E3E1506661DC7
:1001E0001E7E2414742D0A6A2C12723528483C167F
:1001F00076430565441D7D4D02625B4E4A1C0464D6
:100200001B0E6E2310702B1878341C7C3301613B5D
:100210000969420D6D4B11715D4D5D61323A1A24D1
:1002200044222040210C6C2A1A7A3208683119794C
:100230003A157541522E495A2A4A563C2917175ADF
:100240001F1F768D8D6613130D1B1B7C4A4A7B5630
:1002500056794E4E6C3D3D7522227D26266B3131FE
:100260007335357439396925257229297A2D257018
:100270002121715252555D5D050303060707040BEA
:100280000B0C0F0F3D4C3E2C463445544E301500A0
:100290005B006150758E728A6B13741B71525A1F0A
:0202A0004A5EB4
:00000001FF
